:10000000FC7F0020350600002106000025060000C8
:1000100000000000000000000000000000000000E0
:1000200000000000000000000000000029060000A1
:1000300000000000000000002D0600003106000056
:1000400010B5064C2378002B07D1054B002B02D0AE
:10005000044800E000BF0123237010BD5C000020B5
:1000600000000000541B000008B5084B002B03D013
:100070000748084900E000BF07480368002B03D089
:10008000064B002B00D0984708BDC046000000007A
:10009000541B0000600000205800002000000000F9
:1000A00010B50124C3695B081C42FBD1036802241C
:1000B000A34303600124C3691C42FCD104680123EB
:1000C00023430360012403681C42FCD10124C3695B
:1000D0001C42FCD1C3695B081C42F8D10A4B1A438D
:1000E00002600122C3699B081A42FBD1C0239B0214
:1000F000436081810122C3695B081A42FBD1026817
:1001000002231343036010BD040000400122037E5C
:100110001A42FCD0018570470122037E9B081A42D7
:10012000FBD0438BDA0705D4438B9A0702D4438B69
:100130005A0702D50122024B1A70008DC0B27047D7
:1001400078000020F8B5041C03689A8B11072FD59E
:10015000998B08220A439A8380229A721120802167
:100160004900585440200621FF315854822149004B
:100170005A54144A5768144E3740C025AD052F43D2
:10018000576057693E4035435561104D1560104D1D
:10019000156156680F4D35408026B60235435560CF
:1001A0005568AD0BAD03556058540023237106E02C
:1001B0000822FF329B5CDA0601D500F03DFB207976
:1001C000F8BDC04694010020FFFFFF8F940000207F
:1001D00014010020FF3F00F0016000230371437110
:1001E000034B83600A78022313430B707047C046A9
:1001F0004501000010B5394BD96920220A43DA6164
:10020000374B5822995C0120014399543C22995C58
:100210000F24A14399549C5C0621214399545921F0
:100220005C5C20435854985C0F2101409954985CC1
:100230006021014399542B4A2B4B5A801A1C537846
:100240005BB2002BFBDB294B197801220A431A70A1
:10025000191C01228B781A42FCD1254B1B689B0389
:10026000DB0E1F2B00D10523204A9901108D214B55
:1002700003400B4313851E4B1B685B02DB0E1F2BD9
:1002800000D11D23194A118D1F2081430B43138573
:10029000174B1A689201520F072A00D10322134B01
:1002A0001103188D144A02400A431A851A787F21D7
:1002B0000A401A70197804220A431A700F485862CB
:1002C0001A890C218A431A811A8901218A431A81C9
:1002D0000021802201F0C9FA10BDC0460004004090
:1002E0000044004106400000000C00400050004166
:1002F000246080003FF8FFFFFF8FFFFF9401002084
:10030000F0B5474680B4041C171C1E1C1D1C5B0165
:10031000234AD31810335B685B005B0F0333012261
:100320009A40BA4208D873011D4AD31858698022EE
:10033000120602435A610BE0321C531E9A4192018D
:10034000184BD2189046101C3A1C01F085FA414611
:100350007301134AD218131C1161B904890C526934
:10036000920B92030A435A6159690F4A0A405A6133
:1003700008367601A619F27902231343F3717279D4
:1003800080235B421343737108356D0101216319AA
:10039000DB795B081942FAD0381C04BC9046F0BDEA
:1003A0009401002014010020FF3F00F038B5041C28
:1003B000151C1C4B1B78002B13D11B4B1B4A1A64BA
:1003C0005A6C920B92035A64586C194A02405A6450
:1003D000A2235B00E05C40220243E2540122114B65
:1003E0001A704823FF33E35CDA0718D50E4B5B6CB9
:1003F0009B049B0CAB4203D20B4B5D6CAD04AD0C6C
:10040000081C0A492A1C01F027FA4823FF33E15C43
:1004100001220A43E2540022024B1A7000E0002538
:10042000281C38BD7900002094010020D400002051
:10043000FF3F00F0002904D020220623FF33C254DE
:1004400003E010220623FF33C25470470C4B5A6955
:10045000920B92035A610823FF33C15C02220A43C4
:10046000C2540623FF33C15C802252420A43C25465
:100470000821FF310122435C5B081A42FBD0704720
:100480009401002080235B421943C9B281727047F6
:1004900070B50322A0235B00C254134B5C6C134A5B
:1004A0001440C02189050C435C6440244625FF3577
:1004B00044550F4D1D64302690256D0046555D6BEB
:1004C000154029435963802192256D004155094DFE
:1004D0001D63B0256D0044555C6F22405A67B223FE
:1004E0005B00C15470BDC04694010020FFFFFF8F28
:1004F000D400002054010020404B5A681E218A433A
:1005000002210A435A603E4B996908220A439A61C4
:100510003C4B3D4A9A82998A02220A439A82191CCC
:100520000222CB681A42FCD00122384B1A700121FA
:100530001A780A4203D05A7852B2002AF8DB012214
:10054000324B9A601A1C53785BB2002BFBDB304AAB
:100550002E4B5A601A1C53785BB2002BFBDB8222B5
:10056000D2012A4B5A801A1C53785BB2002BFBDB5A
:10057000244B9A8C80218A439A84191C1022CB68C0
:100580001A42FCD0234A1F4BDA62191C1022CB6896
:100590001A42FCD01B4B998C1F4A0A439A84191C9F
:1005A0001022CB681A42FCD0164B998C02220A43C7
:1005B0009A841A1C80214020D3681942FCD0D36849
:1005C0001842F9D00F491022CB681A42FCD0002201
:1005D0000E4B9A601A1C53785BB2002BFBDB0F4A60
:1005E0000A4B5A601A1C53785BB2002BFBDB044B9E
:1005F00000221A725A729A72DA72704700400041F1
:1006000000040040000800400C060000000C004000
:1006100001050100B805FF7D040A00000007030082
:100620000EBEFEE70DBEFEE705BEFEE702BEFEE71C
:1006300001BEFEE710B5184B184A9A4216D0131C9B
:10064000174A9A4212D0144B144A9A420ED2154BB2
:1006500011480330C01A8008013080000023111CAB
:100660000F4AD458CC5004338342FAD10E4B0F4A70
:100670009A420DD00CD20E4B0B490331C91A89088E
:1006800001318900043BC918002204C38B42FCD10C
:1006900000F054F8FEE7C0465C0000200000002097
:1006A000581B000004000020A40300205C00002070
:1006B000600000201D4B1B8801339BB2FA22920080
:1006C000934202D0194A138024E00022174B1A806B
:1006D000174B1B785BB25843164B1B88C01880B26F
:1006E00003B2FF2B02DC134B188004E0FF23114AF6
:1006F00013800F4A13700F4B00215B5E002B05DA4D
:1007000000220C4B1A800122094B1A70802292029F
:10071000094B9A61054B1A88064B00215B5E9A4291
:1007200003D180229202044B5A6170477A00002064
:10073000000000207C0000200044004170B5344BD4
:10074000802292029A605A613823324AD35CDA07D7
:1007500003D50022304B1A6012E02F4B1A682F4B42
:100760009A4203D100222C4B1A6021E02B4A2A4BDB
:100770001A602B4B013B002BFCD10022264B1A6048
:10078000284B1A68531C13D0274B28490B60043B95
:10079000FF210B420CD1802080021D49886182F329
:1007A0000888FF229343224A93601E4B5B681847D8
:1007B000FFF7A2FE62B600F031FE00F055FA041C0D
:1007C00080229202124B9A611A4E351C0320FFF7C9
:1007D00071FF201CA2689047002802D00123154A0F
:1007E00013703378002B05D0002000F0BFFA00F022
:1007F0002DFBFCE72B78002BE8D100F083FE0028CE
:10080000E4D0012000F0B2FA00F020FBFCE7C04683
:100810000044004100040040FC7F00203581730744
:1008200048E801000020000004200000140200201D
:1008300000ED00E07E000020F8B5061C04680823E7
:10084000FF33E15C10220A43E254A94B1A78A94D08
:100850002A705A78A8490A709878A84A1080178890
:10086000D8780002384310801879A54A108017887C
:1008700058790002384310809879A24A1080108875
:10088000DB791B0203431380402282235B00E25486
:100890000B782A781B0213439B4A934200D1E7E06E
:1008A00026DC80225200934200D117E180225200C0
:1008B000934209DC812B00D193E0822B00D198E098
:1008C000802B00D0C0E184E081225200934200D10D
:1008D0002EE181225200934200DA04E1C02292000C
:1008E000934200D1BBE0894A934200D1BCE0ABE126
:1008F0009022120193425BD09022120193420DDCB0
:10090000D022D20093421CD088221201934259D0A7
:10091000A022D200934200D096E13FE07C4A93426D
:1009200000D177E104DC7B4A934200D1D6E08BE131
:10093000794A934200D171E1784A934200D17CE137
:1009400082E16E4B1B881B0A012B0ED130686D4B68
:100950001B889BB21222122B02D86A4B1A8892B2C1
:100960006F490023FFF7CCFC72E1644B1B881B0A24
:10097000022B0ED13068634B1B889BB24322432B62
:1009800002D8604B1A8892B266490023FFF7B8FC80
:100990005EE1201C0121FFF74DFD59E1201CFFF70E
:1009A00055FD564B198889B23068FFF76BFD4FE152
:1009B000524B1B883371201CFFF748FD201CFFF7AA
:1009C00067FD45E1311C01C901220023FFF798FCB6
:1009D0003EE1554900230B8030680222FFF790FC6E
:1009E00036E1514900230B8030680222FFF788FC72
:1009F0002EE100224C4B1A80414B198850221140A5
:100A00004A4A117019880F220A401A801B889BB22B
:100A1000032B1FD8454B1B78002B0AD0384B1B8863
:100A200008335B01E418A2799206D20F3E4B1A807C
:100A300009E0334B1B8808335B01E418A279D20626
:100A4000D20F394B1A803068374902220023FFF752
:100A500057FCFDE0201C0121FFF7ECFCF8E0201C16
:100A60000121FFF7E7FCF3E0201CFFF7EFFCEFE0CC
:100A7000234B19887F229143C9B22C4A11701988DF
:100A80000F220A401A801D4B1B889BB2002B20D1DD
:100A90001B4B1B889BB2002B1BD0194B1B889BB296
:100AA000032B16D8214B1B78002B07D0144B1B8827
:100AB00008335B01E31820225A7106E0104B1B88B3
:100AC00008335B01E31810225A71201CFFF7BEFCAB
:100AD000BEE0201C0121FFF7ADFCB9E0201C012184
:100AE000FFF7A8FCB4E0201CFFF7B0FCB0E0C04664
:100AF00094000020890000207F000020800000205A
:100B00008600002084000020020300000103000092
:100B100021200000010B0000A12100002122000083
:100B200094180000040000208200002088000020AB
:100B3000484B19887F229143C9B2474A11701988DE
:100B40000F220A401A80454B1B889BB2002B5CD1B8
:100B5000404B1B889BB2002B57D03E4B1B889BB24F
:100B6000032B52D83C4B1B78002B25D0394B1B88CC
:100B700008335B01E3189B799A0642D5354B1A88F6
:100B800008325201A218202111711B8808335B0121
:100B9000E318DB795A0634D52E4B1A8808325201F5
:100BA000A218D07940210143D1711B8808335B0121
:100BB000E31802221A7124E0264B1B8808335B01DC
:100BC000E3189B79DA061CD5224B1A8808325201A9
:100BD000A218102111711B8808335B01E318DB791F
:100BE0009A060ED51B4B1A8808325201A218D079EA
:100BF00020210143D1711B8808335B01E3180122D6
:100C00001A71201CFFF722FC22E0201C0121FFF7B3
:100C100011FC1DE0201CFFF719FC19E03068104B97
:100C20001B889BB20822082B02D80D4B1A8892B25F
:100C30000C490023FFF764FB0AE0084B1B88737123
:100C4000201CFFF703FC03E0201C0121FFF7F2FB4F
:100C5000F8BDC046860000208800002080000020EB
:100C6000840000204800002010B5054C054B23608F
:100C7000FFF7C0FA201C2168FFF7AEFA201C10BD58
:100C8000180200200050004100B583B00190054BD0
:100C9000186801A901220123FFF732FB012003B0EC
:100CA00000BDC0461802002010B582B0054B186880
:100CB0006C460734211C0122FFF778FB207802B034
:100CC00010BDC0461802002008B50748FFF73AFAE1
:100CD000031C0020002B06D0034B1A684823FF3367
:100CE000D35C0120184008BD1802002010B5031C79
:100CF0000C1C044A1068191C221C0123FFF700FB7E
:100D0000201C10BD1802002038B5051C0C1C07481B
:100D1000FFF718FA0023002806D0044B1868291C96
:100D2000221CFFF743FB031C181C38BD18020020CF
:100D3000F8B5051C0F1C0C48FFF704FA0023002827
:100D400010D0002F0BD03C1C074E3068291C221CF1
:100D5000FFF72CFB241A2D18002CF6D101E03B1CC8
:100D600000E03B1C181CF8BD18020020012806D129
:100D7000064A074B1A600122064B1A7004E000284D
:100D800002D1054A024B1A607047C046D0180000D5
:100D9000880200209100002028190000F0B585B0DD
:100DA000214B1B78002B2FD0042901D1036830E0A0
:100DB000022901D103882CE003784D0004A84219D0
:100DC0000B3A002D29D10DE0341C1C40092C02D80F
:100DD0003C43147001E0373414701B09013A0130B0
:100DE000A842F1D301A83023037078234370013166
:100DF00049000A23435445190D23EB700B4B1B6824
:100E00000231DB6898470CE0084B1B68DB689847A9
:100E100007E04D0004A842190B3A00200F263027A6
:100E2000D2E705B0F0BDC046900000208802002047
:100E300072B6EFF30883044A1360036883F30888EB
:100E4000436818477047C0468C020020F0B55F46E3
:100E500056464D464446F0B48DB004A9CA4A0B1C10
:100E600031CA31C391CA91C3A0CAA0C3C74A93680B
:100E70005B035B0F9B005B58C5490B60926892B2A5
:100E8000C4490A605343C4490B60C44B00221A6032
:100E90007A22C34B1A70C3488346C34C0134019471
:100EA0000320FFF707FCC14C5D462B681B69201C23
:100EB00040219847BE4B1860BE4B1C600022BE4BC1
:100EC0001A600028ECD0BB4C27683B78FF2B00D180
:100ED0005AE2232B00D028E2B84B1B78002B05D018
:100EE000B04B1B68DB68B64802219847AC4B1B78B7
:100EF000532B3ED1AE4B1B68AF4A1268934221D9A7
:100F0000AC480168013101600132AB4802609A1AB5
:100F1000AC4B1868824202D2AB4B1A6001E0AA4B7C
:100F200018609E4B1868A84D2A6800F095FC2B6845
:100F3000A14A1068191811609E4A1568E9181160D5
:100F4000A24A13709C4B1A68013A1A60994B1A68AE
:100F5000013A1A609D4B1B789A4A11688B4206D25F
:100F6000904A12688D480068C91A92699047C04635
:100F7000CAE1522B08D18B4B1B68884A1068914AF2
:100F800011685B699847BFE14F2B05D1834B1B6804
:100F90008C4A12681A70B7E1482B05D17F4B1B6849
:100FA000884A12681A80AFE1572B05D17B4B1B682A
:100FB000844A12681A60A7E16F2B05D1774B186835
:100FC0000121FFF7EBFE9FE1682B08D17D48734BB1
:100FD0001B681B8803600221FFF7E0FE94E1772B7A
:100FE00008D16E4B1B681B68764803600421FFF72D
:100FF000D5FE89E1472B13D1724B1868FFF718FF14
:10100000734B1B6883F3088862B6724B1B78002B06
:1010100000D179E1634B1B681B680620984773E198
:10102000542B09D10122654B1A705E4B1B68DB689B
:1010300063480221984767E14E2B0DD15F4B1B7827
:10104000002B05D1574B1B68DB685D480221984790
:1010500000225A4B1A7057E1762B0BD1514D2B6859
:10106000DB685D48062198472B68DB6854480221FD
:10107000984749E1562B58D14A4D2B68DB685748B1
:10108000012198472B68DB685548032198472B6856
:10109000544EDB68301C012198472B68DB685248AE
:1010A0000D2198472B68DB68301C012198470022EE
:1010B000414B1A603F4B019F1F603B4D2B78002B2B
:1010C00000D16FE13C493B4A0B6801330B60136868
:1010D000581C10601B78002BF6D1324E3368364D09
:1010E000DB683148296898473368DB683D4801214F
:1010F000984700232B603D4A2E4B1A6063E10B6832
:1011000001330B601368581C10601B78002BF6D15C
:10111000244D2B68284A1168DB68354898472B68AE
:10112000DB68274802219847EEE0582B1FD1254B5A
:101130001868194B1B68984212D2144A2D4FBC46AE
:101140000121134E144D4308D36163461380137D70
:101150001942FCD03768BB00C0182B689842F2D304
:10116000104B1B68DB68244803219847CCE0592BBF
:1011700000D090E0134B1E68002E41D1074B1A6837
:101180001E4B1A6080E0C046A818000000400041D5
:101190004002002038020020340200208402002097
:1011A0003002002088020020FC18000044020020C9
:1011B000280200202C0200203C0200209000002089
:1011C000F018000090020020940200202402002069
:1011D0008C02002091000020C8180000F4180000C4
:1011E000EC180000F818000044190000091900006C
:1011F0000819000002A5FFFF141900008C00002050
:10120000B608724B1D68724B1F68724B5A6880217A
:101210008A435A60002E37D0191C01206E4A92462C
:101220000023994690466D4A0A800B7D1842FCD0F7
:1012300053461B68032B16D9002E16D04A464B4640
:101240000097B4462E1CB758009DAF500133474657
:101250003F68BD08AB420AD204326345F3D1009F18
:10126000351C664606E04B4604E04B4602E0009F14
:10127000351C66465A4A0A800A7D1042FCD09A0004
:10128000BF18AD18F61ACED1564B1B68DB6856480E
:101290000321984738E05A2B36D14D4B1F68534BEA
:1012A0001B68002B0CD03D1CFF180026311C287831
:1012B00000F04CF9011C0135BD42F8D1061C00E0DC
:1012C0000026484B1B68DB68494801219847311CC0
:1012D0006B460F336E4607360F252A1C0A40090954
:1012E000101C3030092A00DD07301870013BB34272
:1012F000F3D13C4D2B68DB6802A8082198472B6886
:10130000DB683C48032198477A223B4B1A70002245
:10131000364B1A60394B1B78002B35D0314B1B688C
:10132000DB683748012198472EE01A1C303A092A19
:1013300006D82E4A303B156829010B43136023E081
:101340001A1C413A052A06D8284A373B1768390142
:101350000B43136018E01A1C613A052A06D8234A89
:10136000573B106801010B4313600DE02C2B06D195
:101370001E4B174A1968116000221A6004E01E4AC9
:1013800013700022194B1A601E4A13680133136050
:101390001D4A1168013111601C4A1268934200D243
:1013A00092E57DE50F4E3368164DDB6818482968D5
:1013B00098473368DB6817480121984700232B6062
:1013C000154A114B1A600F490F4A98E68C0000200D
:1013D00084020020004000414002002044A5FFFF9D
:1013E00004A5FFFF880200201819000090020020C9
:1013F0001C1900002019000030020020900000207D
:10140000241900003C0200202C02002028020020A9
:10141000FC180000F81800000919000010B51E4B58
:101420004A22995C0120014399543522995C0F248A
:10143000A14399549C5C0221214399544B215C5C4B
:1014400020435854985C0F2101409954985C202106
:1014500001439954114B196A04220A431A62104A33
:10146000104B5A801A1C53785BB2002BFBDB0E48E2
:101470000E49C4229203FEF713FE00230C4A137098
:101480000C4A13700C4A13700C4A13700C4A1370F8
:101490000C4A137010BDC0460044004100040040D7
:1014A00014400000000C0040000800422AF6000032
:1014B0009802002022030020990200209C020020B4
:1014C000230300202003002008B5C1B20248FEF724
:1014D0001DFE012008BDC04600080042024B187ED8
:1014E0004007C00F7047C0460008004208B5FFF72C
:1014F000F5FF0028FBD00248FEF70EFE08BDC046EF
:101500000008004208B5FFF7E9FF0023002805D0D6
:10151000FFF7ECFF031C233B5A425341181C08BD44
:1015200070B5041C0E1E06D045182078FFF7CCFFBE
:101530000134AC42F9D1301C70BDC04610B5041C5A
:10154000FFF7D4FF2070012010BDC0460B0A5840A1
:1015500040000902024BC05A484080B27047C04662
:1015600054190000F0B55F4656464D46E0B4061CDF
:101570008946002928D00024002718498A46184A9D
:101580009346FFF7B3FFC5B251460B78002B1DD130
:10159000281C391CFFF7DAFF071C5A461388002B5A
:1015A00003D1104B1B78002B09D0731C35701E1C07
:1015B0004946802903D10A490A88013A0A80013440
:1015C000A4B24C45DDD103E0002002E0012000E0A0
:1015D000381C1CBC91469A46A346F0BD200300204F
:1015E0009A02002021030020F0B55F4656464D4682
:1015F0004446F0B483B001908B4600224A4B1A70E7
:10160000002903D10122494B1A700CE0484B198084
:101610000022464B1A705A46520604D05B4680336D
:101620007F2293439B46404D2C1C0026FFF75EFF14
:101630002B78002B0BD02670FFF758FFC0B2237811
:10164000002B05D00022384B1A70002563E0C0B291
:10165000432823D071285DD01528E7D11EE0002251
:10166000314B1A7057E0FF231840062809D1009B20
:101670000133DBB2009380235B429B4401998031AC
:1016800001915A46002A10D10420FFF71DFFFFF7F1
:101690002DFF0022254B1A7001253CE00123009309
:1016A000234988468946214B9A460120FFF70CFFC3
:1016B0000098FFF709FF0099C843C0B2FFF704FF85
:1016C000019E8025002742461388002B04D15146F5
:1016D0000A780024002A04D03478013B4A4613805B
:1016E0000136201CFFF7F0FE201C391CFFF72EFFEF
:1016F000071C013D002DE6D1000AC0B2FFF7E4FE51
:10170000F8B2FFF7E1FEFFF7F1FE074B1B78002B65
:10171000A9D0A4E70025281C03B03CBC90469946FC
:10172000A246AB46F0BDC0462003002021030020A6
:101730009A020020F0B557464E46C0B483B0061C4E
:101740000022414B1A70002903D101223F4B1A702D
:1017500004E03F4B198000223C4B1A7064253D4F3A
:101760004320FFF7B1FE3C1C00E0013CFFF7B6FE52
:10177000002802D1002CF8D101E0002C03D1013D5A
:10178000002DEDD159E001242F4D2F1CFFF7AEFEA7
:101790002A78002A04D000222B4B1A7000254CE036
:1017A000FF230340012B02D0042B39D03BE001A8DA
:1017B0000221FFF7D7FE301C8021FFF7D3FE8146C0
:1017C0003B78002B34D1FFF791FE000280B28246B5
:1017D000FFF78CFE504480B21B4A1378012B27D0B0
:1017E000814509D101AB1B78A34205D1E34301AA8E
:1017F0005278DBB29A4203D01820FFF765FE17E05B
:101800000620FFF761FE104B1B78002B04D000224E
:101810000D4B1A70002510E0631CDCB28036B5E772
:101820000620FFF751FE0022084B1A70012504E044
:10183000054B1B78002BF6D0E9E7281C03B00CBC45
:1018400091469A46F0BDC0462003002021030020A7
:101850009A02002000350C0010B50023934203D0FB
:10186000CC5CC4540133F9E710BD031C82189342C9
:1018700002D019700133FAE770470000F8B5C0468E
:10188000F8BC08BC9E467047F8B5C046F8BC08BC1A
:101890009E46704712010002020000400912868035
:1018A000000200000001000008000000100000001D
:1018B0002000000040000000800000000001000047
:1018C00000020000000400003030303030300000F2
:1018D000C9140000ED140000DD1400002115000003
:1018E0003D150000E915000035170000322E3000CC
:1018F0000A0D00007600000020000000446563200F
:10190000203620323031380031363A34353A3330EF
:1019100000000000580A0D00590A0D005A0000008E
:10192000230A0D003E000000890C0000A90C0000F5
:10193000C90C0000ED0C0000090D0000ED0C0000CA
:10194000310D00005B41726475696E6F3A58595AE7
:101950005D00000000002110422063308440A5504B
:10196000C660E770088129914AA16BB18CC1ADD1E5
:10197000CEE1EFF13112100273325222B55294428D
:10198000F772D662399318837BB35AA3BDD39CC335
:10199000FFF3DEE36224433420040114E664C774D9
:1019A000A44485546AA54BB528850995EEE5CFF585
:1019B000ACC58DD55336722611163006D776F6662D
:1019C0009556B4465BB77AA719973887DFF7FEE7D5
:1019D0009DD7BCC7C448E5588668A77840086118F9
:1019E00002282338CCC9EDD98EE9AFF94889699925
:1019F0000AA92BB9F55AD44AB77A966A711A500ACD
:101A0000333A122AFDDBDCCBBFFB9EEB799B588B74
:101A10003BBB1AABA66C877CE44CC55C222C033C18
:101A2000600C411CAEED8FFDECCDCDDD2AAD0BBDC4
:101A3000688D499D977EB66ED55EF44E133E322E6C
:101A4000511E700E9FFFBEEFDDDFFCCF1BBF3AAF14
:101A5000599F788F8891A981CAB1EBA10CD12DC172
:101A60004EF16FE18010A100C230E3200450254008
:101A700046706760B9839893FBA3DAB33DC31CD368
:101A80007FE35EF3B1029012F322D2323542145258
:101A900077625672EAB5CBA5A89589856EF54FE5B4
:101AA0002CD50DC5E234C324A014810466744764A8
:101AB00024540544DBA7FAB79987B8975FE77EF708
:101AC0001DC73CD7D326F2369106B01657667676F8
:101AD000154634564CD96DC90EF92FE9C899E989D4
:101AE0008AB9ABA94458654806782768C018E10848
:101AF0008238A3287DCB5CDB3FEB1EFBF98BD89BA8
:101B0000BBAB9ABB754A545A376A167AF10AD01A97
:101B1000B32A923A2EFD0FED6CDD4DCDAABD8BADF3
:101B2000E89DC98D267C076C645C454CA23C832CE7
:101B3000E01CC10C1FEF3EFF5DCF7CDF9BAFBABF47
:101B4000D98FF89F176E367E554E745E932EB23E37
:081B5000D10EF01E00000000A0
:101B5800010000000902430002010080320904006C
:101B680000010202000005240010010424020005FF
:101B7800240600010524010001070583030800FF6E
:101B880009040100020A0000000705810240000064
:101B9800070502024000000000C201000000080022
:0C1BA80069000000410000000000000087
:0400000300000635BE
:00000001FF
